{
  "contractName": "DoraBridge",
  "abi": [
    {
      "inputs": [
        {
          "internalType": "contract ERC20",
          "name": "_token",
          "type": "address"
        },
        {
          "internalType": "address",
          "name": "_admin",
          "type": "address"
        }
      ],
      "stateMutability": "nonpayable",
      "type": "constructor"
    },
    {
      "anonymous": false,
      "inputs": [
        {
          "indexed": true,
          "internalType": "bytes32",
          "name": "txHash",
          "type": "bytes32"
        },
        {
          "indexed": false,
          "internalType": "uint256",
          "name": "count",
          "type": "uint256"
        },
        {
          "indexed": false,
          "internalType": "uint256",
          "name": "processed",
          "type": "uint256"
        }
      ],
      "name": "Process",
      "type": "event"
    },
    {
      "anonymous": false,
      "inputs": [
        {
          "indexed": true,
          "internalType": "uint256",
          "name": "idx",
          "type": "uint256"
        },
        {
          "indexed": true,
          "internalType": "address",
          "name": "eoa",
          "type": "address"
        },
        {
          "indexed": true,
          "internalType": "address",
          "name": "vota",
          "type": "address"
        },
        {
          "indexed": false,
          "internalType": "uint256",
          "name": "amount",
          "type": "uint256"
        }
      ],
      "name": "Submit",
      "type": "event"
    },
    {
      "inputs": [],
      "name": "admin",
      "outputs": [
        {
          "internalType": "address",
          "name": "",
          "type": "address"
        }
      ],
      "stateMutability": "view",
      "type": "function"
    },
    {
      "inputs": [],
      "name": "amountThreshold",
      "outputs": [
        {
          "internalType": "uint256",
          "name": "",
          "type": "uint256"
        }
      ],
      "stateMutability": "view",
      "type": "function"
    },
    {
      "inputs": [],
      "name": "processedRecords",
      "outputs": [
        {
          "internalType": "uint256",
          "name": "",
          "type": "uint256"
        }
      ],
      "stateMutability": "view",
      "type": "function"
    },
    {
      "inputs": [],
      "name": "token",
      "outputs": [
        {
          "internalType": "contract ERC20",
          "name": "",
          "type": "address"
        }
      ],
      "stateMutability": "view",
      "type": "function"
    },
    {
      "inputs": [],
      "name": "totalRecords",
      "outputs": [
        {
          "internalType": "uint256",
          "name": "",
          "type": "uint256"
        }
      ],
      "stateMutability": "view",
      "type": "function"
    },
    {
      "inputs": [
        {
          "internalType": "address",
          "name": "_admin",
          "type": "address"
        }
      ],
      "name": "changeAdmin",
      "outputs": [],
      "stateMutability": "nonpayable",
      "type": "function"
    },
    {
      "inputs": [
        {
          "internalType": "uint256",
          "name": "_idx",
          "type": "uint256"
        }
      ],
      "name": "record",
      "outputs": [
        {
          "components": [
            {
              "internalType": "uint256",
              "name": "amount",
              "type": "uint256"
            },
            {
              "internalType": "address",
              "name": "vota",
              "type": "address"
            },
            {
              "internalType": "bytes32",
              "name": "txHash",
              "type": "bytes32"
            }
          ],
          "internalType": "struct DoraBridge.Record",
          "name": "",
          "type": "tuple"
        }
      ],
      "stateMutability": "view",
      "type": "function"
    },
    {
      "inputs": [
        {
          "internalType": "address",
          "name": "_user",
          "type": "address"
        }
      ],
      "name": "recordOf",
      "outputs": [
        {
          "components": [
            {
              "internalType": "uint256",
              "name": "amount",
              "type": "uint256"
            },
            {
              "internalType": "address",
              "name": "vota",
              "type": "address"
            },
            {
              "internalType": "bytes32",
              "name": "txHash",
              "type": "bytes32"
            }
          ],
          "internalType": "struct DoraBridge.Record[]",
          "name": "results",
          "type": "tuple[]"
        }
      ],
      "stateMutability": "view",
      "type": "function"
    },
    {
      "inputs": [
        {
          "internalType": "uint256",
          "name": "_count",
          "type": "uint256"
        }
      ],
      "name": "getUnprocessedRecords",
      "outputs": [
        {
          "internalType": "uint256",
          "name": "size",
          "type": "uint256"
        },
        {
          "components": [
            {
              "internalType": "uint256",
              "name": "amount",
              "type": "uint256"
            },
            {
              "internalType": "address",
              "name": "vota",
              "type": "address"
            },
            {
              "internalType": "bytes32",
              "name": "txHash",
              "type": "bytes32"
            }
          ],
          "internalType": "struct DoraBridge.Record[]",
          "name": "records",
          "type": "tuple[]"
        }
      ],
      "stateMutability": "view",
      "type": "function"
    },
    {
      "inputs": [
        {
          "internalType": "uint256",
          "name": "_amount",
          "type": "uint256"
        },
        {
          "internalType": "address",
          "name": "_votaAddr",
          "type": "address"
        }
      ],
      "name": "submit",
      "outputs": [],
      "stateMutability": "nonpayable",
      "type": "function"
    },
    {
      "inputs": [
        {
          "internalType": "bytes32",
          "name": "_txHash",
          "type": "bytes32"
        },
        {
          "internalType": "uint256",
          "name": "_count",
          "type": "uint256"
        }
      ],
      "name": "process",
      "outputs": [],
      "stateMutability": "nonpayable",
      "type": "function"
    }
  ],
  "bytecode": "0x60a06040523480156200001157600080fd5b506040516200144338038062001443833981810160405281019062000037919062000162565b8173ffffffffffffffffffffffffffffffffffffffff1660808173ffffffffffffffffffffffffffffffffffffffff1681525050806000806101000a81548173ffffffffffffffffffffffffffffffffffffffff021916908373ffffffffffffffffffffffffffffffffffffffff1602179055505050620001a9565b600080fd5b600073ffffffffffffffffffffffffffffffffffffffff82169050919050565b6000620000e582620000b8565b9050919050565b6000620000f982620000d8565b9050919050565b6200010b81620000ec565b81146200011757600080fd5b50565b6000815190506200012b8162000100565b92915050565b6200013c81620000d8565b81146200014857600080fd5b50565b6000815190506200015c8162000131565b92915050565b600080604083850312156200017c576200017b620000b3565b5b60006200018c858286016200011a565b92505060206200019f858286016200014b565b9150509250929050565b608051611277620001cc600039600081816106cd0152610a9401526112776000f3fe608060405234801561001057600080fd5b50600436106100a95760003560e01c8063acfd6ce611610071578063acfd6ce614610154578063c06ac6a314610170578063f532e86a146101a0578063f851a440146101bc578063fad3fe18146101da578063fc0c546a1461020b576100a9565b8063125f8974146100ae5780632c16cd8a146100cc5780638f283970146100fc5780638f82921e14610118578063a9da95bb14610136575b600080fd5b6100b6610229565b6040516100c39190610b09565b60405180910390f35b6100e660048036038101906100e19190610b55565b61022f565b6040516100f39190610c2d565b60405180910390f35b61011660048036038101906101119190610c74565b610325565b005b6101206103c0565b60405161012d9190610b09565b60405180910390f35b61013e6103cc565b60405161014b9190610b09565b60405180910390f35b61016e60048036038101906101699190610ccd565b6103d2565b005b61018a60048036038101906101859190610c74565b610572565b6040516101979190610dfe565b60405180910390f35b6101ba60048036038101906101b59190610e20565b610680565b005b6101c4610900565b6040516101d19190610e6f565b60405180910390f35b6101f460048036038101906101ef9190610b55565b610924565b604051610202929190610e8a565b60405180910390f35b610213610a92565b6040516102209190610f19565b60405180910390f35b60045481565b610237610ab6565b60008060001b905060006003600085815260200190815260200160002054905060008111801561026c57506006805490508111155b1561029f5760066001826102809190610f63565b8154811061029157610290610f97565b5b906000526020600020015491505b60006040518060600160405280600160008881526020019081526020016000205481526020016002600088815260200190815260200160002060009054906101000a900473ffffffffffffffffffffffffffffffffffffffff1673ffffffffffffffffffffffffffffffffffffffff168152602001848152509050809350505050919050565b60008054906101000a900473ffffffffffffffffffffffffffffffffffffffff1673ffffffffffffffffffffffffffffffffffffffff163373ffffffffffffffffffffffffffffffffffffffff161461037d57600080fd5b806000806101000a81548173ffffffffffffffffffffffffffffffffffffffff021916908373ffffffffffffffffffffffffffffffffffffffff16021790555050565b67016345785d8a000081565b60055481565b60008054906101000a900473ffffffffffffffffffffffffffffffffffffffff1673ffffffffffffffffffffffffffffffffffffffff163373ffffffffffffffffffffffffffffffffffffffff161461042a57600080fd5b6000811161043757600080fd5b600454816005546104489190610fc6565b111561045357600080fd5b6007600083815260200190815260200160002060009054906101000a900460ff161561047e57600080fd5b60016007600084815260200190815260200160002060006101000a81548160ff021916908315150217905550600682908060018154018082558091505060019003906000526020600020016000909190919091505560006006805490509050600060055490506000836005546104f49190610fc6565b90505b8082101561052a5782600360008481526020019081526020016000208190555081806105229061101c565b9250506104f7565b80600581905550847f0547d400853be46b1b80e2570476c027cc6fb3285d0cafc86fffbe7ab59161fb8583604051610563929190611064565b60405180910390a25050505050565b60606000600860008473ffffffffffffffffffffffffffffffffffffffff1673ffffffffffffffffffffffffffffffffffffffff16815260200190815260200160002090506000818054905090508067ffffffffffffffff8111156105da576105d961108d565b5b60405190808252806020026020018201604052801561061357816020015b610600610ab6565b8152602001906001900390816105f85790505b50925060005b818110156106785761064783828154811061063757610636610f97565b5b906000526020600020015461022f565b84828151811061065a57610659610f97565b5b602002602001018190525080806106709061101c565b915050610619565b505050919050565b67016345785d8a00008210156106cb576040517f08c379a00000000000000000000000000000000000000000000000000000000081526004016106c290611119565b60405180910390fd5b7f000000000000000000000000000000000000000000000000000000000000000073ffffffffffffffffffffffffffffffffffffffff166323b872dd336001856040518463ffffffff1660e01b815260040161072993929190611139565b6020604051808303816000875af1158015610748573d6000803e3d6000fd5b505050506040513d601f19601f8201168201806040525081019061076c91906111a8565b6107ab576040517f08c379a00000000000000000000000000000000000000000000000000000000081526004016107a290611221565b60405180910390fd5b60006004549050826001600083815260200190815260200160002081905550816002600083815260200190815260200160002060006101000a81548173ffffffffffffffffffffffffffffffffffffffff021916908373ffffffffffffffffffffffffffffffffffffffff160217905550600860003373ffffffffffffffffffffffffffffffffffffffff1673ffffffffffffffffffffffffffffffffffffffff16815260200190815260200160002081908060018154018082558091505060019003906000526020600020016000909190919091505560018161088f9190610fc6565b6004819055508173ffffffffffffffffffffffffffffffffffffffff163373ffffffffffffffffffffffffffffffffffffffff16827fc7b679e84d58a9a6d68a05757595dd545527b2c7e1fd2c11fc458fb7ea2337a5866040516108f39190610b09565b60405180910390a4505050565b60008054906101000a900473ffffffffffffffffffffffffffffffffffffffff1681565b600060606005546004546109389190610f63565b915082821115610946578291505b8167ffffffffffffffff8111156109605761095f61108d565b5b60405190808252806020026020018201604052801561099957816020015b610986610ab6565b81526020019060019003908161097e5790505b5090506000600554905060005b83811015610a8b5760016000838152602001908152602001600020548382815181106109d5576109d4610f97565b5b602002602001015160000181815250506002600083815260200190815260200160002060009054906101000a900473ffffffffffffffffffffffffffffffffffffffff16838281518110610a2c57610a2b610f97565b5b60200260200101516020019073ffffffffffffffffffffffffffffffffffffffff16908173ffffffffffffffffffffffffffffffffffffffff16815250508180610a759061101c565b9250508080610a839061101c565b9150506109a6565b5050915091565b7f000000000000000000000000000000000000000000000000000000000000000081565b604051806060016040528060008152602001600073ffffffffffffffffffffffffffffffffffffffff168152602001600080191681525090565b6000819050919050565b610b0381610af0565b82525050565b6000602082019050610b1e6000830184610afa565b92915050565b600080fd5b610b3281610af0565b8114610b3d57600080fd5b50565b600081359050610b4f81610b29565b92915050565b600060208284031215610b6b57610b6a610b24565b5b6000610b7984828501610b40565b91505092915050565b610b8b81610af0565b82525050565b600073ffffffffffffffffffffffffffffffffffffffff82169050919050565b6000610bbc82610b91565b9050919050565b610bcc81610bb1565b82525050565b6000819050919050565b610be581610bd2565b82525050565b606082016000820151610c016000850182610b82565b506020820151610c146020850182610bc3565b506040820151610c276040850182610bdc565b50505050565b6000606082019050610c426000830184610beb565b92915050565b610c5181610bb1565b8114610c5c57600080fd5b50565b600081359050610c6e81610c48565b92915050565b600060208284031215610c8a57610c89610b24565b5b6000610c9884828501610c5f565b91505092915050565b610caa81610bd2565b8114610cb557600080fd5b50565b600081359050610cc781610ca1565b92915050565b60008060408385031215610ce457610ce3610b24565b5b6000610cf285828601610cb8565b9250506020610d0385828601610b40565b9150509250929050565b600081519050919050565b600082825260208201905092915050565b6000819050602082019050919050565b606082016000820151610d4f6000850182610b82565b506020820151610d626020850182610bc3565b506040820151610d756040850182610bdc565b50505050565b6000610d878383610d39565b60608301905092915050565b6000602082019050919050565b6000610dab82610d0d565b610db58185610d18565b9350610dc083610d29565b8060005b83811015610df1578151610dd88882610d7b565b9750610de383610d93565b925050600181019050610dc4565b5085935050505092915050565b60006020820190508181036000830152610e188184610da0565b905092915050565b60008060408385031215610e3757610e36610b24565b5b6000610e4585828601610b40565b9250506020610e5685828601610c5f565b9150509250929050565b610e6981610bb1565b82525050565b6000602082019050610e846000830184610e60565b92915050565b6000604082019050610e9f6000830185610afa565b8181036020830152610eb18184610da0565b90509392505050565b6000819050919050565b6000610edf610eda610ed584610b91565b610eba565b610b91565b9050919050565b6000610ef182610ec4565b9050919050565b6000610f0382610ee6565b9050919050565b610f1381610ef8565b82525050565b6000602082019050610f2e6000830184610f0a565b92915050565b7f4e487b7100000000000000000000000000000000000000000000000000000000600052601160045260246000fd5b6000610f6e82610af0565b9150610f7983610af0565b925082821015610f8c57610f8b610f34565b5b828203905092915050565b7f4e487b7100000000000000000000000000000000000000000000000000000000600052603260045260246000fd5b6000610fd182610af0565b9150610fdc83610af0565b9250827fffffffffffffffffffffffffffffffffffffffffffffffffffffffffffffffff0382111561101157611010610f34565b5b828201905092915050565b600061102782610af0565b91507fffffffffffffffffffffffffffffffffffffffffffffffffffffffffffffffff820361105957611058610f34565b5b600182019050919050565b60006040820190506110796000830185610afa565b6110866020830184610afa565b9392505050565b7f4e487b7100000000000000000000000000000000000000000000000000000000600052604160045260246000fd5b600082825260208201905092915050565b7f616d6f756e7420746f6f206c6f77000000000000000000000000000000000000600082015250565b6000611103600e836110bc565b915061110e826110cd565b602082019050919050565b60006020820190508181036000830152611132816110f6565b9050919050565b600060608201905061114e6000830186610e60565b61115b6020830185610e60565b6111686040830184610afa565b949350505050565b60008115159050919050565b61118581611170565b811461119057600080fd5b50565b6000815190506111a28161117c565b92915050565b6000602082840312156111be576111bd610b24565b5b60006111cc84828501611193565b91505092915050565b7f7472616e73666572206572726f72000000000000000000000000000000000000600082015250565b600061120b600e836110bc565b9150611216826111d5565b602082019050919050565b6000602082019050818103600083015261123a816111fe565b905091905056fea26469706673582212209e285d3ddc6b3d077d7c4cfcf10d5824c40395610bf2e141bfb4a19d4f88d22764736f6c634300080d0033",
  "immutableReferences": {
    "16": [
      {
        "length": 32,
        "start": 1741
      },
      {
        "length": 32,
        "start": 2708
      }
    ]
  },
  "source": "// SPDX-License-Identifier: MIT\npragma solidity ^0.8.13;\n\ninterface ERC20 {\n    function transferFrom(address, address, uint256) external returns (bool);\n}\n\ncontract DoraBridge {\n    ERC20 public immutable token;\n\n    address public admin;\n\n    uint256 public constant amountThreshold = 0.1 ether;\n\n    struct Record {\n        uint256 amount;\n        address vota;\n        bytes32 txHash;\n    }\n\n    constructor(ERC20 _token, address _admin) {\n        token = _token;\n        admin = _admin;\n    }\n\n    mapping(uint256 => uint256) private _amounts;\n    mapping(uint256 => address) private _votaAddrs;\n    mapping(uint256 => uint256) private _txHashIndexes;\n    uint256 public totalRecords;\n    uint256 public processedRecords;\n\n    bytes32[] private _txHashes;\n    mapping(bytes32 => bool) private _txHashesMap;\n\n    mapping(address => uint256[]) private _usersRecords;\n\n    event Submit(\n        uint256 indexed idx,\n        address indexed eoa,\n        address indexed vota,\n        uint256 amount\n    );\n\n    event Process(bytes32 indexed txHash, uint256 count, uint256 processed);\n\n    function changeAdmin(address _admin) external {\n        require(msg.sender == admin);\n        admin = _admin;\n    }\n\n    function record(uint256 _idx) public view returns (Record memory) {\n        bytes32 txHash = bytes32(0);\n        uint256 txHashIdx = _txHashIndexes[_idx];\n        if (txHashIdx > 0 && txHashIdx <= _txHashes.length) {\n            txHash = _txHashes[txHashIdx - 1];\n        }\n\n        Record memory res = Record(_amounts[_idx], _votaAddrs[_idx], txHash);\n\n        return res;\n    }\n\n    function recordOf(\n        address _user\n    ) external view returns (Record[] memory results) {\n        uint256[] storage list = _usersRecords[_user];\n        uint256 size = list.length;\n\n        results = new Record[](size);\n        for (uint256 i = 0; i < size; i++) {\n            results[i] = record(list[i]);\n        }\n    }\n\n    function getUnprocessedRecords(\n        uint256 _count\n    ) external view returns (uint256 size, Record[] memory records) {\n        size = totalRecords - processedRecords;\n        if (size > _count) {\n            size = _count;\n        }\n        records = new Record[](size);\n\n        uint256 idx = processedRecords;\n        for (uint256 i = 0; i < size; i++) {\n            records[i].amount = _amounts[idx];\n            records[i].vota = _votaAddrs[idx];\n            idx++;\n        }\n    }\n\n    function submit(uint256 _amount, address _votaAddr) external {\n        require(_amount >= amountThreshold, \"amount too low\");\n\n        require(\n            token.transferFrom(msg.sender, address(1), _amount),\n            \"transfer error\"\n        );\n\n        uint256 idx = totalRecords;\n        _amounts[idx] = _amount;\n        _votaAddrs[idx] = _votaAddr;\n\n        _usersRecords[msg.sender].push(idx);\n\n        totalRecords = idx + 1;\n\n        emit Submit(idx, msg.sender, _votaAddr, _amount);\n    }\n\n    function process(bytes32 _txHash, uint256 _count) external {\n        require(msg.sender == admin);\n        require(_count > 0);\n        require(processedRecords + _count <= totalRecords);\n        require(!_txHashesMap[_txHash]);\n\n        _txHashesMap[_txHash] = true;\n\n        _txHashes.push(_txHash);\n        uint256 txHashIdx = _txHashes.length;\n\n        uint256 idx = processedRecords;\n        uint256 newProcessedRecords = processedRecords + _count;\n        for (; idx < newProcessedRecords; idx++) {\n            _txHashIndexes[idx] = txHashIdx;\n        }\n\n        processedRecords = newProcessedRecords;\n\n        emit Process(_txHash, _count, newProcessedRecords);\n    }\n}\n",
  "sourcePath": "/Users/bun/DoraFactory/DORA-token-migrate/tmp/dora-bridge-contract/contracts/DoraBridge.sol",
  "compiler": {
    "name": "solc",
    "version": "0.8.13+commit.abaa5c0e.Emscripten.clang"
  },
  "schemaVersion": "3.4.16",
  "updatedAt": "2024-09-20T16:51:47.408Z",
  "devdoc": {
    "kind": "dev",
    "methods": {},
    "version": 1
  },
  "userdoc": {
    "kind": "user",
    "methods": {},
    "version": 1
  }
}